{
  "contractName": "employeeprofile",
  "abi": [
    {
      "constant": false,
      "inputs": [
        {
          "internalType": "string",
          "name": "empid",
          "type": "string"
        },
        {
          "internalType": "string",
          "name": "firstname",
          "type": "string"
        },
        {
          "internalType": "string",
          "name": "lastname",
          "type": "string"
        },
        {
          "internalType": "string",
          "name": "email",
          "type": "string"
        },
        {
          "internalType": "string",
          "name": "ph",
          "type": "string"
        },
        {
          "internalType": "string",
          "name": "country",
          "type": "string"
        },
        {
          "internalType": "address",
          "name": "employee",
          "type": "address"
        },
        {
          "internalType": "string",
          "name": "designation",
          "type": "string"
        },
        {
          "internalType": "string",
          "name": "password",
          "type": "string"
        }
      ],
      "name": "setEmployee",
      "outputs": [],
      "payable": false,
      "stateMutability": "nonpayable",
      "type": "function"
    },
    {
      "constant": false,
      "inputs": [
        {
          "internalType": "string",
          "name": "empid",
          "type": "string"
        },
        {
          "internalType": "string",
          "name": "_url",
          "type": "string"
        }
      ],
      "name": "setIfpsUrl",
      "outputs": [],
      "payable": false,
      "stateMutability": "nonpayable",
      "type": "function"
    },
    {
      "constant": true,
      "inputs": [
        {
          "internalType": "string",
          "name": "empid",
          "type": "string"
        }
      ],
      "name": "getEmployee",
      "outputs": [
        {
          "internalType": "string",
          "name": "firstname",
          "type": "string"
        },
        {
          "internalType": "string",
          "name": "lastname",
          "type": "string"
        },
        {
          "internalType": "string",
          "name": "email",
          "type": "string"
        },
        {
          "internalType": "string",
          "name": "ph",
          "type": "string"
        },
        {
          "internalType": "string",
          "name": "country",
          "type": "string"
        },
        {
          "internalType": "address",
          "name": "employee",
          "type": "address"
        },
        {
          "internalType": "string",
          "name": "_url",
          "type": "string"
        }
      ],
      "payable": false,
      "stateMutability": "view",
      "type": "function"
    }
  ],
  "bytecode": "0x608060405234801561001057600080fd5b50611503806100206000396000f3fe608060405234801561001057600080fd5b50600436106100415760003560e01c806385c5225c14610046578063a00435dc146103c9578063e9743f66146108c6575b600080fd5b6100ff6004803603602081101561005c57600080fd5b810190808035906020019064010000000081111561007957600080fd5b82018360208201111561008b57600080fd5b803590602001918460018302840111640100000000831117156100ad57600080fd5b91908080601f016020809104026020016040519081016040528093929190818152602001838380828437600081840152601f19601f820116905080830192505050505050509192919290505050610a18565b6040518080602001806020018060200180602001806020018873ffffffffffffffffffffffffffffffffffffffff1673ffffffffffffffffffffffffffffffffffffffff1681526020018060200187810387528e818151815260200191508051906020019080838360005b8381101561018557808201518184015260208101905061016a565b50505050905090810190601f1680156101b25780820380516001836020036101000a031916815260200191505b5087810386528d818151815260200191508051906020019080838360005b838110156101eb5780820151818401526020810190506101d0565b50505050905090810190601f1680156102185780820380516001836020036101000a031916815260200191505b5087810385528c818151815260200191508051906020019080838360005b83811015610251578082015181840152602081019050610236565b50505050905090810190601f16801561027e5780820380516001836020036101000a031916815260200191505b5087810384528b818151815260200191508051906020019080838360005b838110156102b757808201518184015260208101905061029c565b50505050905090810190601f1680156102e45780820380516001836020036101000a031916815260200191505b5087810383528a818151815260200191508051906020019080838360005b8381101561031d578082015181840152602081019050610302565b50505050905090810190601f16801561034a5780820380516001836020036101000a031916815260200191505b50878103825288818151815260200191508051906020019080838360005b83811015610383578082015181840152602081019050610368565b50505050905090810190601f1680156103b05780820380516001836020036101000a031916815260200191505b509d505050505050505050505050505060405180910390f35b6108c460048036036101208110156103e057600080fd5b81019080803590602001906401000000008111156103fd57600080fd5b82018360208201111561040f57600080fd5b8035906020019184600183028401116401000000008311171561043157600080fd5b91908080601f016020809104026020016040519081016040528093929190818152602001838380828437600081840152601f19601f8201169050808301925050505050505091929192908035906020019064010000000081111561049457600080fd5b8201836020820111156104a657600080fd5b803590602001918460018302840111640100000000831117156104c857600080fd5b91908080601f016020809104026020016040519081016040528093929190818152602001838380828437600081840152601f19601f8201169050808301925050505050505091929192908035906020019064010000000081111561052b57600080fd5b82018360208201111561053d57600080fd5b8035906020019184600183028401116401000000008311171561055f57600080fd5b91908080601f016020809104026020016040519081016040528093929190818152602001838380828437600081840152601f19601f820116905080830192505050505050509192919290803590602001906401000000008111156105c257600080fd5b8201836020820111156105d457600080fd5b803590602001918460018302840111640100000000831117156105f657600080fd5b91908080601f016020809104026020016040519081016040528093929190818152602001838380828437600081840152601f19601f8201169050808301925050505050505091929192908035906020019064010000000081111561065957600080fd5b82018360208201111561066b57600080fd5b8035906020019184600183028401116401000000008311171561068d57600080fd5b91908080601f016020809104026020016040519081016040528093929190818152602001838380828437600081840152601f19601f820116905080830192505050505050509192919290803590602001906401000000008111156106f057600080fd5b82018360208201111561070257600080fd5b8035906020019184600183028401116401000000008311171561072457600080fd5b91908080601f016020809104026020016040519081016040528093929190818152602001838380828437600081840152601f19601f820116905080830192505050505050509192919290803573ffffffffffffffffffffffffffffffffffffffff169060200190929190803590602001906401000000008111156107a757600080fd5b8201836020820111156107b957600080fd5b803590602001918460018302840111640100000000831117156107db57600080fd5b91908080601f016020809104026020016040519081016040528093929190818152602001838380828437600081840152601f19601f8201169050808301925050505050505091929192908035906020019064010000000081111561083e57600080fd5b82018360208201111561085057600080fd5b8035906020019184600183028401116401000000008311171561087257600080fd5b91908080601f016020809104026020016040519081016040528093929190818152602001838380828437600081840152601f19601f8201169050808301925050505050505091929192905050506110f7565b005b610a16600480360360408110156108dc57600080fd5b81019080803590602001906401000000008111156108f957600080fd5b82018360208201111561090b57600080fd5b8035906020019184600183028401116401000000008311171561092d57600080fd5b91908080601f016020809104026020016040519081016040528093929190818152602001838380828437600081840152601f19601f8201169050808301925050505050505091929192908035906020019064010000000081111561099057600080fd5b8201836020820111156109a257600080fd5b803590602001918460018302840111640100000000831117156109c457600080fd5b91908080601f016020809104026020016040519081016040528093929190818152602001838380828437600081840152601f19601f820116905080830192505050505050509192919290505050611327565b005b6060806060806060600060606000886040518082805190602001908083835b60208310610a5a5780518252602082019150602081019050602083039250610a37565b6001836020036101000a03801982511681845116808217855250505050505090500191505090815260200160405180910390206000016000896040518082805190602001908083835b60208310610ac65780518252602082019150602081019050602083039250610aa3565b6001836020036101000a038019825116818451168082178552505050505050905001915050908152602001604051809103902060010160008a6040518082805190602001908083835b60208310610b325780518252602082019150602081019050602083039250610b0f565b6001836020036101000a038019825116818451168082178552505050505050905001915050908152602001604051809103902060020160008b6040518082805190602001908083835b60208310610b9e5780518252602082019150602081019050602083039250610b7b565b6001836020036101000a038019825116818451168082178552505050505050905001915050908152602001604051809103902060030160008c6040518082805190602001908083835b60208310610c0a5780518252602082019150602081019050602083039250610be7565b6001836020036101000a038019825116818451168082178552505050505050905001915050908152602001604051809103902060040160008d6040518082805190602001908083835b60208310610c765780518252602082019150602081019050602083039250610c53565b6001836020036101000a038019825116818451168082178552505050505050905001915050908152602001604051809103902060050160009054906101000a900473ffffffffffffffffffffffffffffffffffffffff1660028e6040518082805190602001908083835b60208310610d035780518252602082019150602081019050602083039250610ce0565b6001836020036101000a0380198251168184511680821785525050505050509050019150509081526020016040518091039020868054600181600116156101000203166002900480601f016020809104026020016040519081016040528092919081815260200182805460018160011615610100020316600290048015610dcb5780601f10610da057610100808354040283529160200191610dcb565b820191906000526020600020905b815481529060010190602001808311610dae57829003601f168201915b50505050509650858054600181600116156101000203166002900480601f016020809104026020016040519081016040528092919081815260200182805460018160011615610100020316600290048015610e675780601f10610e3c57610100808354040283529160200191610e67565b820191906000526020600020905b815481529060010190602001808311610e4a57829003601f168201915b50505050509550848054600181600116156101000203166002900480601f016020809104026020016040519081016040528092919081815260200182805460018160011615610100020316600290048015610f035780601f10610ed857610100808354040283529160200191610f03565b820191906000526020600020905b815481529060010190602001808311610ee657829003601f168201915b50505050509450838054600181600116156101000203166002900480601f016020809104026020016040519081016040528092919081815260200182805460018160011615610100020316600290048015610f9f5780601f10610f7457610100808354040283529160200191610f9f565b820191906000526020600020905b815481529060010190602001808311610f8257829003601f168201915b50505050509350828054600181600116156101000203166002900480601f01602080910402602001604051908101604052809291908181526020018280546001816001161561010002031660029004801561103b5780601f106110105761010080835404028352916020019161103b565b820191906000526020600020905b81548152906001019060200180831161101e57829003601f168201915b50505050509250808054600181600116156101000203166002900480601f0160208091040260200160405190810160405280929190818152602001828054600181600116156101000203166002900480156110d75780601f106110ac576101008083540402835291602001916110d7565b820191906000526020600020905b8154815290600101906020018083116110ba57829003601f168201915b505050505090509650965096509650965096509650919395979092949650565b6040518061010001604052808981526020018881526020018781526020018681526020018581526020018473ffffffffffffffffffffffffffffffffffffffff1681526020018381526020018281525060008a6040518082805190602001908083835b6020831061117d578051825260208201915060208101905060208303925061115a565b6001836020036101000a038019825116818451168082178552505050505050905001915050908152602001604051809103902060008201518160000190805190602001906111cc9291906113a9565b5060208201518160010190805190602001906111e99291906113a9565b5060408201518160020190805190602001906112069291906113a9565b5060608201518160030190805190602001906112239291906113a9565b5060808201518160040190805190602001906112409291906113a9565b5060a08201518160050160006101000a81548173ffffffffffffffffffffffffffffffffffffffff021916908373ffffffffffffffffffffffffffffffffffffffff16021790555060c08201518160060190805190602001906112a49291906113a9565b5060e08201518160070190805190602001906112c19291906113a9565b5090505060018060008573ffffffffffffffffffffffffffffffffffffffff1673ffffffffffffffffffffffffffffffffffffffff16815260200190815260200160002060006101000a81548160ff021916908315150217905550505050505050505050565b806002836040518082805190602001908083835b6020831061135e578051825260208201915060208101905060208303925061133b565b6001836020036101000a038019825116818451168082178552505050505050905001915050908152602001604051809103902090805190602001906113a4929190611429565b505050565b828054600181600116156101000203166002900490600052602060002090601f016020900481019282601f106113ea57805160ff1916838001178555611418565b82800160010185558215611418579182015b828111156114175782518255916020019190600101906113fc565b5b50905061142591906114a9565b5090565b828054600181600116156101000203166002900490600052602060002090601f016020900481019282601f1061146a57805160ff1916838001178555611498565b82800160010185558215611498579182015b8281111561149757825182559160200191906001019061147c565b5b5090506114a591906114a9565b5090565b6114cb91905b808211156114c75760008160009055506001016114af565b5090565b9056fea265627a7a72315820d726ff03a5ac6359bbb810e4ef05fa32d8dff400e0b1739eaad0af7677ef222864736f6c63430005100032",
  "source": "// SPDX-License-Identifier: GPL-3.0 \r\npragma solidity >=0.4.16 <0.9.0;\r\n\r\ncontract employeeprofile\r\n\r\n {\r\n\r\n     struct details\r\n     {\r\n         string firstname;\r\n         string lastname;\r\n         string email;\r\n        //  string designation;\r\n         string ph;\r\n         string country;\r\n         address   employee;\r\n         string designation;\r\n         string password;\r\n\r\n     }\r\n\r\n    mapping(string => details) profile;\r\n    mapping(address => bool) allowedEmployee;\r\n    mapping(string => string) ipfsUrl;\r\n\r\n    function setEmployee(string memory empid,string memory firstname,string memory lastname, string memory email,string memory ph,string memory country,address  employee,string memory designation,string memory password) public\r\n    {\r\n        profile[empid]=details(firstname,lastname,email,ph,country,employee,designation,password);\r\n        allowedEmployee[employee]=true;\r\n        \r\n    }\r\n   \r\n    //  function whitelistAddress (address user) onlyArbiter public {\r\n    //     allowedUsers[user]=true;\r\n    // } \r\n      \r\n    function setIfpsUrl(string memory empid, string memory _url) public {\r\n        ipfsUrl[empid] = _url;\r\n    }\r\n\r\n    function getEmployee(string memory empid)public view returns(string memory firstname,string memory lastname, string memory email,string memory ph,string memory country,address employee,string memory _url)\r\n    {\r\n        return(profile[empid].firstname,profile[empid].lastname,profile[empid].email,profile[empid].ph,profile[empid].country,profile[empid].employee,ipfsUrl[empid]);\r\n        \r\n    }\r\n \r\n }\r\n\r\ncontract esrowboss is employeeprofile{\r\n\r\n\t// Declaring the state variables\r\n\r\n\taddress payable public boss;\r\n    address payable public employee;\r\n\tuint public price;\r\n\taddress payable public arbiter;\r\n\tuint public invoiceCount = 0;\r\n    \r\n    mapping(address=>bool) allowedUsers;\r\n\r\n\r\n   struct Invoice {\r\n        address payable employee;\r\n\r\n        string id;\r\n        string companyname;\r\n\t\tstring employeename;\r\n\t\tstring invonumber;\r\n\t\tstring work;\r\n\t\tstring salary;\r\n        address payable boss;\r\n      \r\n    }\r\n\r\n struct Job{\r\n        string jobname;\r\n        string location;\r\n        string jtype;\r\n        string jd;\r\n        string abtcompany;\r\n        address payable boss;\r\n        \r\n    }\r\n\r\n\r\n struct profiles{\r\n        uint[] workList;\r\n    }\r\n\r\n\tstruct Work\r\n    {\r\n\t\tstring empid;\r\n\t\tstring name;\r\n\t\taddress payable employee;\r\n        address payable boss;\r\n\t}\r\nstruct msgs\r\n    {\r\n    address payable boss;\r\n    address payable employee;\r\n    string position;    \r\n    }\r\n   \r\n    mapping(string=>Work)public works;\r\n    mapping(uint=>Invoice)public Invoices;\r\n\r\n    mapping(string => string) workipfsUrl;\r\n    mapping(uint => string) invoUrl;\r\n    \r\n    mapping(uint=>Job)public jobs;\r\n\r\n    mapping(address=>Invoice)public AdrsInvoices;\r\n\r\n    mapping(address =>msgs)message;\r\n    mapping(address => string) adrsinvoUrl;\r\n    mapping(address => string) resume;\r\n\r\n\tenum State\r\n    {\r\n\t\tawate_payment, awate_delivery, complete\r\n\t}\r\n\r\n\t\r\n\tState public state;\r\n\t\r\n\tmodifier instate(State expected_state){\r\n\t\t\r\n\t\trequire(state == expected_state);\r\n\t\t_;\r\n\t}\r\n\r\nmodifier onlyArbiter(){\r\n\t\trequire(msg.sender== arbiter);\r\n\t\t_;\r\n\t}\r\n\r\n\r\n     modifier onlyBoss() {\r\n        //How can i assign access to users address in the array listuser\r\n        require(allowedUsers[msg.sender]);\r\n        _;\r\n    }\r\n\r\n\tmodifier onlyEmployee(){\r\n        require(allowedEmployee[msg.sender]);\r\n\t\t_;\r\n\t}\r\n\t\r\n\t// event gets(string name);\r\n    event confirmpayment(address boss);\r\n\r\n\tconstructor() public{\r\n\t\t\r\n\t\tarbiter = msg.sender;\r\n\t\t// boss = _boss;\r\n\t\t// employee = _employee;\r\n\t\tstate = State.awate_payment;\r\n\t}\r\n\t                   \r\n    function addjob(uint jobid,string memory jobname,string memory location,string memory jtype, string memory jd,string memory abtcompany,address payable boss) public\r\n    {\r\n              jobs[jobid]=Job(jobname,location,jtype,jd,abtcompany,boss);\r\n    }\r\n\t\r\n\r\n/////////////////message between employee and boss///////////////////////\r\n\r\n    function sendmsgtoboss(address payable boss,address payable employee,string memory position,string memory uploadFile) public{\r\n    message[boss].boss = boss;\r\n    message[boss].employee = employee;\r\n    message[boss].position = position;\r\n\r\n    resume[boss]=uploadFile;\r\n    }\r\n\r\n\r\n    function getmsgbyboss(address boss) public view returns(address payable employee,string memory uploadFile){\r\n    return(message[boss].employee,resume[boss]);\r\n    }\r\n\r\n/////////////////////////////////////////////////////////////////////\r\n\t  \r\n      \r\n     function whitelistAddress (address user) onlyArbiter public {\r\n        allowedUsers[user]=true;\r\n    } \r\n            \r\n      \r\n        function createInvoiceToempAddress(address payable employee,string memory id, string memory companyname,string memory employeename,string memory invonumber,string memory work,string memory salary,string memory uploadFile)\r\n\t\t public  onlyBoss returns(bool)\r\n\t{\r\n\r\n         AdrsInvoices[employee].employee =employee;\r\n         AdrsInvoices[employee].id =id;\r\n         AdrsInvoices[employee].companyname = companyname;\r\n         AdrsInvoices[employee].employeename = employeename;  \r\n\t\t AdrsInvoices[employee].invonumber = invonumber;\r\n         AdrsInvoices[employee].work = work;\r\n         AdrsInvoices[employee].salary = salary;\r\n        adrsinvoUrl[employee]=uploadFile; \r\n    \r\n         AdrsInvoices[employee].boss = msg.sender;\r\n         \r\n        //  emit gets(companyname);\r\n    }\r\n\r\n\r\n\t\r\n     function viewDetailsbyemp(address payable employee) public view returns (string memory companyname,string memory employeename,string memory invonumber,string memory work,string memory salary){\r\n        \r\n        \r\n        return(AdrsInvoices[employee].companyname,AdrsInvoices[employee].employeename,AdrsInvoices[employee].invonumber,AdrsInvoices[employee].work,AdrsInvoices[employee].salary);\r\n    }\r\n    \r\n\r\n\t  \r\n// \t     function getInvoice(uint _id) public view returns (string memory uploadFile)\r\n// \t{\r\n// \t\treturn(invoUrl[_id]);\r\n       \r\n//     }\r\n    \r\n\t   \r\n\t   //sending work to boss\r\n\t    function creatework(string memory empid,string memory uploadFile) public onlyEmployee \r\n\t{\r\n     \r\n        works[empid].empid = empid;\r\n       \r\n        workipfsUrl[empid]=uploadFile;\r\n\r\n        works[empid].employee = msg.sender;\r\n         \r\n        //  emit gets(_name);\r\n    }\r\n\r\n\r\n     function getwork(string memory empid) public view returns (string memory uploadFile)\r\n\t{\r\n\t\treturn(workipfsUrl[empid]);\r\n       \r\n    }\r\n\r\n    \r\n\tfunction confirmPayment() onlyBoss external payable{\r\n\r\n\t\tstate = State.awate_delivery;\r\n\t\temit confirmpayment( boss);\r\n\r\n\t}  \r\n\t\r\n\tfunction confirmDelivery() onlyBoss external{\r\n\t\temployee.transfer(address(this).balance);\r\n\t\tstate = State.complete;\r\n\t\t\r\n\t}\r\n\t\r\n\tfunction ReturnPayment() onlyEmployee instate(\r\n\tState.awate_delivery)public{\r\n\tboss.transfer(address(this).balance);\r\n\t}\r\n\t\r\n}",
  "sourcePath": "D:\\Blockchain\\Escrow_boss\\contracts\\escrowboss.sol",
  "compiler": {
    "name": "solc",
    "version": "0.5.16+commit.9c3226ce.Emscripten.clang"
  },
  "schemaVersion": "3.4.3",
  "updatedAt": "2021-12-06T09:51:44.314Z",
  "devdoc": {
    "methods": {}
  },
  "userdoc": {
    "methods": {}
  }
}